:100000000C942A000C9447000C9447000C94470071
:100010000C9447000C9447000C9447000C94470044
:100020000C9447000C9447000C9447000C94470034
:100030000C9447000C9447000C9447000C94470024
:100040000C9447000C9447000C9447000C94470014
:100050000C94470011241FBECFE5D8E0DEBFCDBF12
:1000600011E0A0E6B0E0E6E9F6E102C005900D92ED
:10007000A03EB107D9F712E0A0EEB1E001C01D9299
:10008000A831B107E1F70E948D090C94490B0C943B
:100090000000672B09F09FC0009711F4D8980895CD
:1000A0008130910511F4D99808958230910511F4A9
:1000B000DA9808958330910511F4DB98089584301F
:1000C000910511F4DC9808958530910511F4DD98BF
:1000D00008958630910511F4DE98089587309105D2
:1000E00011F4DF9808958A30910511F4C0980895AD
:1000F0008B30910511F4C19808958C30910511F45D
:10010000C29808958D30910511F4C39808958E30EA
:10011000910511F4C49808958F30910511F4C59894
:1001200008958031910511F4C698089581319105A3
:1001300011F4C79808958431910511F4A898089591
:100140008531910511F4A99808958631910511F42E
:10015000AA9808958731910511F4AB9808958831D4
:10016000910511F4AC9808958931910511F4AD9879
:1001700008958A31910511F4AE9808958B31910557
:1001800011F4AF9808958E31910511F49098089567
:100190008F31910511F4919808958032910511F4F1
:1001A000929808958132910511F4939808958232BE
:1001B000910511F4949808958332910511F495985E
:1001C00008958432910511F496980895859709F061
:1001D0009FC097980895009711F4D89A0895813098
:1001E000910511F4D99A08958230910511F4DA9AA3
:1001F00008958330910511F4DB9A089584309105B8
:1002000011F4DC9A08958530910511F4DD9A089572
:100210008630910511F4DE9A08958730910511F426
:10022000DF9A08958A30910511F4C09A08958B30B1
:10023000910511F4C19A08958C30910511F4C29A78
:1002400008958D30910511F4C39A08958E3091056B
:1002500011F4C49A08958F30910511F4C59A089548
:100260008031910511F4C69A08958131910511F4F8
:10027000C79A08958431910511F4A89A089585319B
:10028000910511F4A99A08958631910511F4AA9A5D
:1002900008958731910511F4AB9A0895883191053D
:1002A00011F4AC9A08958931910511F4AD9A08952D
:1002B0008A31910511F4AE9A08958B31910511F4AC
:1002C000AF9A08958E31910511F4909A08958F3167
:1002D000910511F4919A08958032910511F4929A42
:1002E00008958132910511F4939A0895823291050F
:1002F00011F4949A08958332910511F4959A089512
:100300008432910511F4969A0895859709F4979A85
:1003100008950F931F93082F182F80FF05C080E0CA
:1003200090E061E070E004C080E090E060E070E0A8
:100330000E94490011FF05C081E090E061E070E09B
:1003400004C081E090E060E070E00E94490012FF8C
:1003500005C082E090E061E070E004C082E090E0DF
:1003600060E070E00E94490013FF05C083E090E068
:1003700061E070E004C083E090E060E070E00E9423
:10038000490014FF05C082E290E061E070E004C023
:1003900082E290E060E070E00E94490015FF05C035
:1003A00083E290E061E070E004C083E290E060E00E
:1003B00070E00E94490016FF05C084E290E061E011
:1003C00070E004C084E290E060E070E00E944900C8
:1003D00007FF05C085E290E061E070E004C085E2BF
:1003E00090E060E070E00E9449001F910F91089535
:1003F0000F931F93182F80E290E060E070E00E945E
:100400004900812F0E94890181E290E061E070E063
:100410000E9449000AEF10E0C8010197F1F781E25C
:1004200090E060E070E00E944900C8010197F1F798
:100430001F910F91089581E00E94F8010895813085
:1004400029F4862F80580E94F8010895823021F403
:10045000862F80540E94F801089580E290E060E0C9
:1004600070E00E94490081E290E060E070E00E944C
:10047000490088E893E10197F1F780E30E94F801D1
:1004800082EE94E00197F1F780E30E94F8018AEF91
:1004900090E00197F1F780E30E94F80184EC99E085
:1004A0000197F1F788E30E94F8018CE00E94F801BF
:1004B00081E00E94F80186E00E94F80108950F9300
:1004C0001F93182F80E290E061E070E00E944900E5
:1004D000812F0E94890181E290E061E070E00E943A
:1004E00049000AEF10E0C8010197F1F781E290E0BE
:1004F00060E070E00E944900C8010197F1F71F9188
:100500000F910895CF93DF93EC0102C00E945F0228
:1005100089918823D9F7DF91CF9108958CE10E94CA
:10052000F801089588E10E94F8010895CF93DF93C0
:10053000C82F80FF05C082E290E061E070E004C057
:1005400082E290E060E070E00E944900C1FF05C0D7
:1005500083E290E061E070E004C083E290E060E05C
:1005600070E00E944900C2FF05C084E290E061E0B3
:1005700070E004C084E290E060E070E00E94490016
:10058000C3FF05C085E290E061E070E004C085E251
:1005900090E060E070E00E944900DF91CF91089503
:1005A0000F931F93182F80E290E060E070E00E94AC
:1005B0004900812F0E94960281E290E061E070E0A4
:1005C0000E9449000AEF10E0C8010197F1F781E2AB
:1005D00090E060E070E00E944900C8010197F1F7E7
:1005E0001F910F91089580E00E94D00281E00E9447
:1005F000D00208951F93813019F4162F105804C0AB
:10060000823059F4162F1054812F82958F700E94DA
:10061000D002812F8F700E94D0021F91089580E038
:100620000E94960288E893E10197F1F783E00E9427
:10063000D00282EE94E00197F1F783E00E94D002AD
:100640008EEB9AE00197F1F783E00E94D00282E0FE
:100650000E94D00282E00E94D00288E00E94D00274
:1006600080E00E94D0028CE00E94D00280E00E94D4
:10067000D00286E00E94D0020895FF920F931F934C
:10068000F82E80E290E061E070E00E9449008F2D3A
:1006900082958F700E94960281E290E061E070E0A6
:1006A0000E9449000AEF10E0C8010197F1F781E2CA
:1006B00090E060E070E00E944900C8010197F1F706
:1006C0008F2D8F700E94960281E290E061E070E0D1
:1006D0000E944900C8010197F1F781E290E060E0D3
:1006E00070E00E944900C8010197F1F71F910F9136
:1006F000FF900895CF93DF93EC0102C00E943D0369
:1007000089918823D9F7DF91CF91089581E00E94E4
:10071000D0028CE00E94D002089581E00E94D002B5
:1007200088E00E94D00208952F923F924F925F92EC
:100730006F927F928F929F92AF92BF92CF92DF92F1
:10074000EF92FF920F931F93CF93DF9308E813E18B
:10075000C8ECDFEAA3E04A2E512CF4E02F2E312C16
:10076000E5E08E2E912C76E0672E712C67E0C62E88
:10077000D12C58E0A52EB12C49E0E42EF12C80912B
:10078000E3019091E40102970CF0B9C18091DC0182
:100790006091DA010E94FA0280E690E00E947A03FA
:1007A000C09AC8010197F1F7B49B28C08091DC0181
:1007B0006091DA010E94FA0282E690E00E947A03D8
:1007C000CE010197F1F78091DA019091DB0101965A
:1007D0009093DB018093DA018091E3019091E40131
:1007E000FC01EE0FFF1FEF5FFD4F21E030E0318392
:1007F000208301969093E4018093E301B59B28C088
:100800008091DC016091DA010E94FA0284E690E0B6
:100810000E947A03CE010197F1F78091DA0190915D
:10082000DB0101969093DB018093DA018091E30173
:100830009091E401FC01EE0FFF1FEF5FFD4F22E0FE
:1008400030E03183208301969093E4018093E301AB
:10085000B69B26C08091DC016091DA010E94FA0209
:1008600086E690E00E947A03CE010197F1F780912D
:10087000DA019091DB0101969093DB018093DA011C
:100880008091E3019091E401FC01EE0FFF1FEF5F07
:10089000FD4F5182408201969093E4018093E301E1
:1008A000C098C19AC8010197F1F7B49B26C0809106
:1008B000DC016091DA010E94FA0288E690E00E9471
:1008C0007A03CE010197F1F78091DA019091DB0173
:1008D00001969093DB018093DA018091E30190917E
:1008E000E401FC01EE0FFF1FEF5FFD4F318220821C
:1008F00001969093E4018093E301B59B26C080911B
:10090000DC016091DA010E94FA028AE690E00E941E
:100910007A03CE010197F1F78091DA019091DB0122
:1009200001969093DB018093DA018091E30190912D
:10093000E401FC01EE0FFF1FEF5FFD4F918280820B
:1009400001969093E4018093E301B69B26C08091C9
:10095000DC016091DA010E94FA028CE690E00E94CC
:100960007A03CE010197F1F78091DA019091DB01D2
:1009700001969093DB018093DA018091E3019091DD
:10098000E401FC01EE0FFF1FEF5FFD4F71826082FB
:1009900001969093E4018093E301C198C29AC80143
:1009A0000197F1F7B49B26C08091DC016091DA01D8
:1009B0000E94FA028EE690E00E947A03CE0101972F
:1009C000F1F78091DA019091DB0101969093DB01C0
:1009D0008093DA018091E3019091E401FC01EE0F34
:1009E000FF1FEF5FFD4FD182C08201969093E4011B
:1009F0008093E301B59B26C08091DC016091DA0110
:100A00000E94FA0280E790E00E947A03CE010197EB
:100A1000F1F78091DA019091DB0101969093DB016F
:100A20008093DA018091E3019091E401FC01EE0FE3
:100A3000FF1FEF5FFD4FB182A08201969093E4010A
:100A40008093E301B69B26C08091DC016091DA01BE
:100A50000E94FA0282E790E00E947A03CE01019799
:100A6000F1F78091DA019091DB0101969093DB011F
:100A70008093DA018091E3019091E401FC01EE0F93
:100A8000FF1FEF5FFD4FF182E08201969093E4013A
:100A90008093E301C298C39AC8010197F1F7B59B0F
:100AA00026C08091DC016091DA010E94FA0284E79D
:100AB00090E00E947A03CE010197F1F78091DA016C
:100AC0009091DB0101969093DB018093DA01809194
:100AD000E3019091E401FC01EE0FFF1FEF5FFD4F7A
:100AE0001182108201969093E4018093E301C398F0
:100AF0008091DE019091DF01019709F440CEDF91F2
:100B0000CF911F910F91FF90EF90DF90CF90BF900A
:100B1000AF909F908F907F906F905F904F903F909D
:100B20002F9008952091010230910202409103021A
:100B3000509104028091E3019091E401019731F416
:100B4000E091FF01F0910002208331838091E30165
:100B50009091E401029791F4E091FF01F09100027D
:100B6000C90163E0220F331F6A95E1F7880F991FCF
:100B7000280F391F240F351F318320831092E40181
:100B80001092E30182E090E09093DD018093DC011C
:100B90009093DB018093DA01089510BC85E089B958
:100BA0008AB188618AB980B5866880BD08955D9BE9
:100BB000FECF8CB90895FC0104C05D9BFECF319639
:100BC0008CB980818823C9F708955F9BFECF8CB1D3
:100BD0008093FC0108950E94F30281E061E00E948D
:100BE000FA0286E790E00E947A0380E197E229E129
:100BF00030E0F9013197F1F70197D9F70E94F3023C
:100C000082E890E00E947A030E94CD0583E990E09B
:100C10000E94DB055D9BFECF8DE08CB980E197E201
:100C200029E130E0F9013197F1F70197D9F78DE922
:100C300090E00E94DB0580E197E229E130E0F901D4
:100C40003197F1F70197D9F785EB90E00E94DB052A
:100C500080E197E229E130E0F9013197F1F701975E
:100C6000D9F75D9BFECF8AE18CB980E197E229E15B
:100C700030E0F9013197F1F70197D9F780E197E278
:100C800029E130E0F9013197F1F70197D9F780E1D7
:100C900097E229E130E0F9013197F1F70197D9F7AF
:100CA0000E94F30208958330910509F476C08430E0
:100CB00091053CF48130910581F0029709F02DC136
:100CC0003CC08530910509F4C8C0853091050CF40D
:100CD00094C0069709F021C1F0C081E08BBB80E190
:100CE00097E229E130E0F9013197F1F70197D9F75F
:100CF00080E197E229E130E0F9013197F1F70197BE
:100D0000D9F780E197E229E130E0F9013197F1F775
:100D10000197D9F780E197E229E130E0F9013197B5
:100D2000F1F70197D9F780E197E229E130E0F90185
:100D30003197F1F70197D9F71FC182E08BBB80E1B2
:100D400097E229E130E0F9013197F1F70197D9F7FE
:100D500080E197E229E130E0F9013197F1F701975D
:100D6000D9F780E197E229E130E0F9013197F1F715
:100D70000197D9F780E197E229E130E0F901319755
:100D8000F1F70197D9F780E197E229E130E0F90125
:100D90003197F1F70197D9F7EFC084E08BBB80E181
:100DA00097E229E130E0F9013197F1F70197D9F79E
:100DB00080E197E229E130E0F9013197F1F70197FD
:100DC000D9F780E197E229E130E0F9013197F1F7B5
:100DD0000197D9F780E197E229E130E0F9013197F5
:100DE000F1F70197D9F780E197E229E130E0F901C5
:100DF0003197F1F70197D9F7BFC088E08BBB80E14D
:100E000097E229E130E0F9013197F1F70197D9F73D
:100E100080E197E229E130E0F9013197F1F701979C
:100E2000D9F780E197E229E130E0F9013197F1F754
:100E30000197D9F780E197E229E130E0F901319794
:100E4000F1F70197D9F780E197E229E130E0F90164
:100E50003197F1F70197D9F78FC080E18BBB80E123
:100E600097E229E130E0F9013197F1F70197D9F7DD
:100E700080E197E229E130E0F9013197F1F701973C
:100E8000D9F780E197E229E130E0F9013197F1F7F4
:100E90000197D9F780E197E229E130E0F901319734
:100EA000F1F70197D9F780E197E229E130E0F90104
:100EB0003197F1F70197D9F75FC080E28BBB80E1F2
:100EC00097E229E130E0F9013197F1F70197D9F77D
:100ED00080E197E229E130E0F9013197F1F70197DC
:100EE000D9F780E197E229E130E0F9013197F1F794
:100EF0000197D9F780E197E229E130E0F9013197D4
:100F0000F1F70197D9F780E197E229E130E0F901A3
:100F10003197F1F70197D9F72FC080E48BBB80E1BF
:100F200097E229E130E0F9013197F1F70197D9F71C
:100F300080E197E229E130E0F9013197F1F701977B
:100F4000D9F780E197E229E130E0F9013197F1F733
:100F50000197D9F780E197E229E130E0F901319773
:100F6000F1F70197D9F780E197E229E130E0F90143
:100F70003197F1F70197D9F78FE78BBB08950F935E
:100F80001F93CF93DF932CE330E0AC01429FC0016D
:100F9000439F900D529F900D11249093E6018093F2
:100FA000E50181E062E00E94FA028BEC90E00E9491
:100FB0007A031092E8011092E70109E110E0C0E520
:100FC000D3EC1BC081E060E00E94FA020E9486031D
:100FD000A99A80E49FE1F8013197F1F70197D9F7D9
:100FE000A998CE010197F1F78091E7019091E8016E
:100FF00001969093E8018093E7012091E7013091F9
:10100000E8018091E5019091E60128173907D4F2B3
:101010000E94F30281E062E00E94FA0289ED90E012
:101020000E947A0382E062E00E94FA0286EE90E07B
:101030000E947A03A89A80E197E229E130E0F90161
:101040003197F1F70197D9F780E197E229E130E094
:10105000F9013197F1F70197D9F7A8980E94EB05AC
:1010600080910E0290910F020E945306DF91CF9162
:101070001F910F91089581E062E00E94FA0283EFD0
:1010800090E00E947A0382E062E00E94FA0282E02D
:1010900091E00E947A0380E197E229E130E0F901D2
:1010A0003197F1F70197D9F70E94F30281E062E0EE
:1010B0000E94FA0280E191E00E947A0382E062E0FD
:1010C0000E94FA020E9494030E949205E091FF019F
:1010D000F09100028081918168EF71E04AE050E078
:1010E0000E94040B809103029091040290930F02DE
:1010F00080930E020E94F3028CE191E00E947A0339
:1011000088EF91E00E947A0380E197E229E130E0E4
:10111000F9013197F1F70197D9F70E94F30281E0C5
:1011200062E00E94FA0289E291E00E947A0382E082
:1011300062E00E94FA020E9494030E949205E091EC
:10114000FF01F09100028081918168EF71E04AE037
:1011500050E00E94040B809103029091040290934E
:101160001102809310020E94F3028CE191E00E9430
:101170007A0388EF91E00E947A0380E197E229E107
:1011800030E0F9013197F1F70197D9F70E94F302A6
:1011900081E062E00E94FA0285E391E00E947A0316
:1011A00082E062E00E94FA020E9494030E9492058B
:1011B000E091FF01F09100028081918168EF71E080
:1011C0004AE050E00E94040B0E94F3028CE191E09F
:1011D0000E947A0388EF91E00E947A0380E197E20F
:1011E00029E130E0F9013197F1F70197D9F70E9431
:1011F000F30281E062E00E94FA028BE391E00E9438
:101200007A0382E062E00E94FA020E9494030E9444
:101210009205E091FF01F09100028081918168EFD9
:1012200071E04AE050E00E94040B0E94F3028CE15E
:1012300091E00E947A0388EF91E00E947A0380E1B6
:1012400097E229E130E0F9013197F1F70197D9F7F9
:101250000E94F30281E062E00E94FA028AE491E0D7
:101260000E947A0382E062E00E94FA020E949403E4
:101270000E949205E091FF01F0910002808191812E
:1012800068EF71E04AE050E00E94040B0E94F30214
:101290008CE191E00E947A0388EF91E00E947A034A
:1012A00080E197E229E130E0F9013197F1F7019708
:1012B000D9F70E94F30281E062E00E94FA028FE413
:1012C00091E00E947A0382E062E00E94FA020E94AA
:1012D00094030E949205E091FF01F0910002808149
:1012E000918168EF71E04AE050E00E94040B0E9497
:1012F000F3028CE191E00E947A0388EF91E00E9472
:101300007A0380E197E229E130E0F9013197F1F7C2
:101310000197D9F70E94F3020895CF92DF92EF92DE
:10132000FF920F931F93CF93DF939FEF91BB9ABBD5
:101330008FE087BB92BB94BB9BBB0E940F030E94B4
:10134000F30281E062E00E94FA028BE591E00E94E4
:101350007A0388EA91E60197F1F782E065E00E945E
:10136000FA028AE691E00E947A0380E197E229E19D
:1013700030E0F9013197F1F70197D9F780E197E271
:1013800029E130E0F9013197F1F70197D9F709E147
:1013900010E0E8EAEE2EE1E6FE2E72E0C72ED12C38
:1013A0000E94F30281E062E00E94FA028EE691E080
:1013B0000E947A0382E062E00E94FA0282E091E0F9
:1013C0000E947A0380E197E2F8013197F1F70197E3
:1013D000D9F780E197E2F8013197F1F70197D9F752
:1013E0000E94F30281E062E00E94FA028BE791E042
:1013F0000E947A0382E062E00E94FA0280E197E2B2
:10140000F8013197F1F70197D9F780E197E2F801F8
:101410003197F1F70197D9F70E9494030E94920542
:10142000E091FF01F09100028081918168EF71E00D
:101430004AE050E00E94040B0E94F302E091FF0199
:10144000F091000280819181019709F0A5C081E0AF
:1014500062E00E94FA028AE891E00E947A0382E048
:1014600062E00E94FA028BE991E00E947A0380E137
:1014700097E2F8013197F1F70197D9F70E94F3024B
:1014800081E062E00E94FA020E9494030E949205A9
:10149000E091FF01F09100028081918168EF71E09D
:1014A0004AE050E00E94040B0E94F302C091030244
:1014B000D09104021092FE011092FD010BC00E9417
:1014C0003B088091FD019091FE0101969093FE01F1
:1014D0008093FD018091FD019091FE018C179D0785
:1014E00074F30E94F30281E061E00E94FA0287EA4D
:1014F00091E00E947A0382E062E00E94FA0288EBA7
:1015000091E00E947A0380E197E2F8013197F1F7C8
:101510000197D9F70E94F30281E062E00E94FA028B
:1015200085EC91E00E947A0382E062E00E94FA0278
:1015300080ED91E00E947A0380E197E2F801319713
:10154000F1F70197D9F70E94F3020E94F30281E0BC
:1015500062E00E94FA02609109028091100290916B
:10156000110270E04AE050E00E94040B80910902F1
:1015700090E00E947A0380E197E2F8013197F1F759
:101580000197D9F70E94F302809110029091110205
:101590000E94BF070E94F30281E062E00E94FA020B
:1015A0008BE591E00E947A03C7010197F1F782E091
:1015B00065E00E94FA028AE691E00E947A0319C06F
:1015C0000E949403C7010197F1F780910102909165
:1015D00002029093E1018093E0011092E4011092E5
:1015E000E301D092DD01C092DC01D092DB01C09218
:1015F000DA018091E0019091E10108970CF31092DB
:10160000E1011092E001CCCEFB019F01E894423051
:10161000C4F04532B4F44A3029F497FB1EF4909597
:1016200081959F4F642F77270E94350B805D8A3309
:101630000CF0895D8193CB010097A1F716F45DE270
:1016400051931082C9010C94250BDC01FC01672F1A
:1016500071917723E1F7329704C07C916D93708389
:101660006291AE17BF07C8F30895AA1BBB1B51E1D7
:1016700007C0AA1FBB1FA617B70710F0A61BB70B02
:10168000881F991F5A95A9F780959095BC01CD01A7
:061690000895F894FFCF5D
:101696005F00310032003300340035003600370079
:1016A60038003900300053656E64696E67204D530B
:1016B600470053657474696E6720554152542E2E47
:1016C6002E2E0041542B434D47463D310041542BAD
:1016D600434D47533D222B39343731383732343670
:1016E6003731220D00416C656172742066726F6D30
:1016F600204D4544494320424F58004D41545249DC
:1017060058204D45444943530049542753205449D2
:101716004D4520544F00474554204D4544494349C3
:101726004E4500506C656173652120456E74657287
:1017360020004D656469632044657461696C7300BB
:101746004D656469636174696F6E3A00796F7520DF
:10175600656E74657265643A00486F75726C7920BF
:10176600466F72200044617973200054696D6520CC
:10177600496E74657276616C2000446F7365004231
:101786004D3D30312F414D3D3032004D657472690B
:1017960078204D65646963732000424F58004C659C
:1017A60074277320456E74657220005945532D3099
:1017B600314E4F2D4F7468657200484F57204D418A
:1017C6004E59204D45444943532000444F20594F1C
:1017D60055204841564500416C657274696E675FD5
:1017E60053797374656D200049735F41637469763C
:1017F60061746564005468616E6B20596F752000D2
:1018060056657279204D756368000200020001007A
:00000001FF
